:100000000C94FA000C9418010C9418010C9418012B
:100010000C9418010C9418010C9418010C941801FC
:100020000C9418010C9418010C9418010C941801EC
:100030000C9418010C9418010C9418010C941801DC
:100040000C9418010C9418010C9418010C941801CC
:100050000C9418010C9418010C9418010C941801BC
:100060000C9418010C9418010C9418010C941801AC
:100070000C9418010C9418010C9418010C9418019C
:100080000C9418010C9418010C9418010C9418018C
:100090000C9418010C9418010C9418010C9418017C
:1000A0000C9418010C9418010C9418010C9418016C
:1000B0000C9418010C9418010C9418010C9418015C
:1000C0000C9418010C9418010C9418010C9418014C
:1000D0000C9418010C9418010C9418010C9418013C
:1000E0000C9418010C9418010C9418010C9418012C
:1000F0000C9418010C9418010C9418010C9418011C
:100100000C9418010C9418010C9418010C9418010B
:100110000C9418010C9418010C9418010C941801FB
:100120000C9418010C9418010C9418010C941801EB
:100130000C9418010C9418010C9418010C941801DB
:100140000C9418010C9418010C9418010C941801CB
:100150000C9418010C9418010C9418010C941801BB
:100160000C9418010C9418010C9418010C941801AB
:100170000C9418010C9418010C9418010C9418019B
:100180000C9418010C9418010C9418010C9418018B
:100190000C9418010C9418010C9418010C9418017B
:1001A0000C9418010C9418010C9418010C9418016B
:1001B0000C9418010C9418010C9418010C9418015B
:1001C0000C9418010C9418010C9418010C9418014B
:1001D0000C9418010C9418010C9418010C9418013B
:1001E0000C9418010C9418010C9418010C9418012B
:1001F0000C94180111241FBECFEFDFE3DEBFCDBF8B
:1002000000E00CBF18BE19BE1ABE1BBE10E2A0E073
:10021000B0E2EAE3F2E000E00BBF02C007900D920B
:10022000A030B107D9F71BBE0E941A010C941B0124
:0A0230000C940000FFCFF894FFCFFC
:00000001FF
