:100000000C94FA000C9420010C9420010C94200113
:100010000C9420010C9420010C9420010C942001DC
:100020000C9420010C9420010C9420010C942001CC
:100030000C94FB160C94501A0C9420010C94200183
:100040000C9420010C9420010C9420010C942001AC
:100050000C9420010C9420010C9420010C9420019C
:100060000C9420010C9452140C9460110C946F1198
:100070000C9419140C947E110C948D110C94200185
:100080000C9420010C9420010C9420010C9420016C
:100090000C9420010C9420010C9420010C9420015C
:1000A0000C9420010C9420010C9420010C9420014C
:1000B0000C9420010C9419170C94DE190C94200157
:1000C0000C9420010C9420010C9420010C9420012C
:1000D0000C9420010C9420010C9420010C9420011C
:1000E0000C9420010C9420010C946E130C94D811E4
:1000F0000C94E7110C9435130C94F6110C94051222
:100100000C9420010C9420010C9420010C942001EB
:100110000C9420010C9420010C9420010C942001DB
:100120000C9420010C9420010C9420010C940A17CB
:100130000C94171A0C9420010C9420010C942001AB
:100140000C9420010C9420010C9420010C942001AB
:100150000C9420010C9420010C9420010C9420019B
:100160000C94E0130C949C110C94AB110C94A713F9
:100170000C94BA110C94C9110C9420010C94200118
:100180000C9420010C9420010C9420010C9420016B
:100190000C9420010C9420010C9420010C9420015B
:1001A0000C9420010C9420010C9428170C94A51990
:1001B0000C9420010C9420010C9420010C9420013B
:1001C0000C9420010C9420010C9420010C9420012B
:1001D0000C9420010C9420010C9420010C94FC122E
:1001E0000C9414120C9423120C94C3120C9432121B
:1001F0000C94411211241FBECFEFDFE3DEBFCDBF51
:1002000000E00CBF18BE19BE1ABE1BBE16E2A0E06D
:10021000B0E2EEE1F9E500E00BBF02C007900D92FD
:10022000A83BB107D9F71BBE17E2A8EBB6E201C0A5
:100230001D92AC35B107E1F70E9479010C948D2C29
:100240000C9400000F93DF93CF930F92CDB7DEB7DE
:100250002FB72983F894FC0108ED04BF60838981DE
:100260008FBF0F90CF91DF910F91089587E080931A
:10027000500024E630E04AE050E02150304031F1B7
:100280008091510090E087709070892BF9F4CA0139
:100290000197F1F7F2CF809150008F7E809350004C
:1002A00080E9858380915000806180935000809127
:1002B000510084FFFCCF98ED94BF83E0E0E4F0E0D0
:1002C000818394BF84E0809340000895E0E5F0E0EE
:1002D000168281E0809360008093680080915100D5
:1002E00090E083709070892BB1F608950E943601DA
:1002F00008952F923F924F925F926F927F928F92CA
:100300009F92AF92BF92CF92DF92EF92FF920F93A4
:100310001F93DF93CF93CDB7DEB7C95DD340CDBF79
:10032000DEBF0E9436012EE0E22EF12CEC0EFD1E07
:10033000C70160EB7BE040EA56E020E400E80E9461
:10034000A716C70140E052EC61E070E020E00E9497
:100350006315E092B826F092B926C70160E00E94CA
:1003600060159FE1E92EF12CEC0EFD1EC70160EA3D
:1003700079E040E656E024E008E00E94A716C701B5
:1003800040E052EC61E070E020E00E946315CE0195
:10039000C096B7010E94EA0E81EDA82EB12CAC0EDA
:1003A000BD1EC50160E874E00E94AF1B0BE6C02EC5
:1003B00001E0D02ECC0EDD1EC60160E974E00E9483
:1003C000AF1B15E0E12E12E0F12EEC0EFD1EC70171
:1003D00060EA74E00E94AF1B8E0101561D4FC801F8
:1003E00060EB74E00E94AF1BAE82BF82C886D986E4
:1003F000EA86FB860C871D87C50140E85AE166E066
:1004000070E00E945F1BC60140E85AE166E070E0C0
:100410000E945F1BC70140E85AE166E070E00E945D
:100420005F1BC80140E85AE166E070E00E945F1B74
:100430008091A2008360E0EAF0E082837894B9E3DF
:10044000CB2EB3E0DB2ECC0EDD1EC6010E94C6070C
:1004500081E290E00E94D91D182F092FBE016F5232
:100460007F4F42ED22E30E94EA05C601612F702F03
:100470000E94210881E290E00E94D91D182F092FC7
:10048000BE0165597E4F40ED22E30E94EA05C60198
:10049000612F702F0E94210882E390E00E94D91DF5
:1004A000182FF92EBE016B5F7D4F40ED22E302ED68
:1004B000A0E3EA2E0E94A50BC601612F7F2D0E94AA
:1004C000210882E390E00E94D91D182FF92EFFE940
:1004D000AF2EF2E0BF2EAC0EBD1EB50142ED20E303
:1004E00000EDE2E3EE2E0E94A50BC601612F7F2DE9
:1004F0000E942108C6010E94410880E8E0E0F7E080
:10050000818380E4E0E4F6E08183CE010E9660E032
:1005100070E20E94131E8E01015E1F4FC80165E14B
:1005200070E20E94131ECD52DC4F1882C35DD3408F
:1005300070E3672E712C6C0E7D1E61E5462E512CEA
:100540004C0E5D1E480154E0252E312C2C0E3D1E14
:10055000CA52DC4FC882C65DD340C952DC4FD88234
:10056000C75DD34092012D5F3F4FCC52DC4F2883B3
:100570003983C45DD340C852DC4FA882C85DD340E4
:10058000C752DC4FB882C95DD340C3010E94730ECD
:10059000882309F457C2C3010E94DD0D8C0161E379
:1005A00070E20E946629009769F5C3010E94E10D7F
:1005B000823008F4AEC01A82C30160E0AE014E5F23
:1005C0005F4F0E94FF0DC30161E0AE014D5F5F4FC1
:1005D0000E94FF0DEA81E43008F031C2F0E0EE0F36
:1005E000FF1FEC0FFD1F868197816B810E94381DD4
:1005F000882321F0C40165E570E21FC2C4016EE5E5
:1006000070E21BC2C80168E670E20E94662900978A
:1006100071F4CA52DC4F8881C65DD340C952DC4FA9
:100620009881C75DD340B4010E940D0908C2C8017A
:1006300061E770E20E946629009709F05DC0C3017E
:100640000E94E10D843008F464C01B82C30160E0A5
:10065000AE014D5F5F4F0E94FF0DC30161E0AE012F
:100660004E5F5F4F0E94FF0DC3010E94E10D90E0BD
:100670000E942A28B82EA92E9C01690102E010E0F0
:100680007E010894E11CF11C0BC0C301602FA7017F
:100690000E94FF0D8981D6018D936D010F5F1F4F61
:1006A000C3010E94E10D90E00817190774F38B81D4
:1006B00090E0880F991FE80EF91EF7010581168159
:1006C000FA80C3010E94E10D282F2250C8016F2D2E
:1006D0004B2D5A2D0E94231D97FF04C0C40167E7CC
:1006E00070E203C0C4016CE770E20E948F1F8B2D83
:1006F0009A2D0E94D728A3C1C8016FE770E20E941B
:100700006629009709F082C0C3010E94E10D843080
:1007100020F4C40169E370E290C11982C30160E072
:100720006E010894C11CD11CA6010E94FF0DC301DB
:1007300061E0AE014E5F5F4F0E94FF0DC30162E0BA
:10074000A1010E94FF0DC30163E0AE014D5F5F4F49
:100750000E94FF0DE981F0E0EE0FFF1FEC0DFD1D83
:10076000858196816A81A10121E00B810E94831C11
:1007700097FF04C0C40167E770E245C0C20165E8A5
:1007800070E20E946F29CC52DC4FE880F980C45D92
:10079000D34000E010E027C0E981F0E0EE0FFF1F3A
:1007A000EC0DFD1D85819681602F0E94651700D09C
:1007B00000D0EDB7FEB73196ADB7BEB71196ED924A
:1007C000FC92129729E830E22283338384831582D6
:1007D0000E94C229E80EF91E0F5F1F4F8DB79EB70A
:1007E00006968DBF9EBFE981F0E0EE0FFF1FEC0D76
:1007F000FD1D858196810E94781790E008171907E2
:100800005CF2C401B2010E948F1F19C1C8016FE8D8
:1008100070E20E9466290097A1F4C30160E0A10183
:100820000E94170E6C817D81CA52DC4F8881C65DA3
:10083000D340C952DC4F9881C75DD3400E94D60790
:100840003BC0C8016AE970E20E946629009769F41A
:10085000CA52DC4F8881C65DD340C952DC4F9881B3
:10086000C75DD3400E94510927C0C80160EA70E209
:100870000E9466290097A1F4C30160E0A1010E94D3
:10088000170E6C817D81CA52DC4F8881C65DD340D2
:10089000C952DC4F9881C75DD3400E94DD070CC070
:1008A000C80165EA70E20E946629009749F4C30115
:1008B00060E0A1010E94170EC20166E970E25EC00D
:1008C000C8016DEA70E20E946629009791F400D099
:1008D00000D0EDB7FEB73196ADB7BEB711964D92C9
:1008E0005C92129725EB30E22283338314821582C7
:1008F0009BC0C8016CEB70E20E946629009769F406
:10090000CA52DC4F8881C65DD340C952DC4F988102
:10091000C75DD3400E9479092EC0C80169EC70E21E
:100920000E946629009769F4CA52DC4F8881C65D2F
:10093000D340C952DC4F9881C75DD3400E94410823
:100940001AC0C80163ED70E20E9466290097C9F4DD
:10095000C30160E0A1010E94170E8C819D819E0160
:10096000225F3F4F892B19F0C90161E002C0C90124
:1009700060E00E946015C20164EC70E20E946F2981
:100980005AC0C80169ED70E20E9466290097F1F42F
:10099000C30160E0A1010E94170E8C819D81892B0B
:1009A00049F0C4010E94ED14C40143E459E767E033
:1009B00070E008C0C4010E94ED14C40140E052EC94
:1009C00061E070E020E00E94631539C0C8016EED5F
:1009D00070E20E9466290097B1F4C30160E0A101B2
:1009E0000E94170ECD52DC4F1882C35DD3408C811C
:1009F0009D81892B09F4BFCF91E0CD52DC4F9883C4
:100A0000C35DD340B8CF00D000D0EDB7FEB731966C
:100A1000ADB7BEB711964D925C92129726EE30E2BA
:100A200022833383048315830E94C2298DB79EB726
:100A300006968DBF9EBFC401B2010E94131EC30162
:100A40000E94D80DCA52DC4F8881C65DD340C9527E
:100A5000DC4F9881C75DD340B4010E94420ACD5259
:100A6000DC4F9881C35DD340992309F48ECD81E694
:100A70008C83C852DC4F8881C85DD340C752DC4F9D
:100A80009881C95DD34062E3A10121E000E00E94AA
:100A9000831C7BCDFC018481811181E00895089540
:100AA00020E0FC018481823009F421E0822F089546
:100AB00008950895FC01858196810E949A170895F2
:100AC000DB01FB0125EA21932AE511962C939F0176
:100AD0002F5F3F4FF901DC011E9680E10D900192DE
:100AE0008150E1F7205F3F4FC9010895FC018581E6
:100AF00096813E96BF0140E10E94051C0895029731
:100B00000E9483050895CF93DF93EC018C8181309F
:100B100069F4CE010E94760582E08C838091B8262C
:100B20009091B92666E071E20E94131EDF91CF9189
:100B30000895EF92FF920F931F93DF93CF930F923D
:100B4000CDB7DEB77C018CE3898381E0F701848334
:100B5000858196816781AE014F5F5F4F21E000E1A3
:100B60000E94201C8C018091B8269091B926011515
:100B7000110519F46EE171E204C0F70114826CE210
:100B800071E20E94131EC8010F90CF91DF911F9157
:100B90000F91FF90EF9008950F931F938C01FC012C
:100BA000858196810E94311BF8018581968140E8FC
:100BB0005AE166E070E00E945F1BB8016E5F7F4FF4
:100BC000F801858196810E945A17F80114821F91BD
:100BD0000F910895FC01CB016DE871E26083718390
:100BE0006E5D7F4F628373834783208785839683FF
:100BF00021E02187228723872AE030E02487358778
:100C000014823296BF010E945A170895FC01CB014D
:100C10006DE871E2608371836E5D7F4F62837383E1
:100C2000478320878583968321E021872287238736
:100C30002AE030E02487358714823296BF010E9473
:100C40005A170895BF92CF92DF92EF92FF920F93BF
:100C50001F93DF93CF930F92CDB7DEB77C0149830B
:100C6000B22E6801FC0185819681AE014F5F5F4F16
:100C700021E00B2D0E94831C9C0197FD09C0F70108
:100C800085819681B6014B2D0E94051C282F30E0EE
:100C9000C9010F90CF91DF911F910F91FF90EF90BD
:100CA000DF90CF90BF900895EF92FF920F931F9324
:100CB000DF93CF93CDB7DEB72E97CDBFDEBF7C01DC
:100CC000DC0190961C9190971123F9F4ED91FC9121
:100CD0000284F385E02D19958823B9F0C701F70147
:100CE00067814CE32EE08E010F5F1F4F0E942206AA
:100CF00081E0D70190968C938091B8269091B92687
:100D00006EE371E20E94131E11E0812F2E96CDBF7B
:100D1000DEBFCF91DF911F910F91FF90EF9008956B
:100D2000EF92FF920F931F93DF93CF930F920F9247
:100D3000CDB7DEB7FC0167814AE322E08E010F5F89
:100D40001F4F0E942206098110E003701070102FBF
:100D500000278A8190E0082B192B00D000D0EDB736
:100D6000FEB731968AEBE82E86E2F82EADB7BEB715
:100D70001196ED92FC92129780E591E28283938323
:100D8000048315830E94C2298DB79EB706968DBF36
:100D90009EBF8091B8269091B926B7010E94131E7C
:100DA00080E00031110508F081E00F900F90CF91A5
:100DB000DF911F910F91FF90EF90089540933A2794
:100DC00020933B27FC01858196814AE357E222E08C
:100DD0000E94231D08950F931F93CF93DF93EC017F
:100DE0008B018D819E816F810E94381D882321F0A7
:100DF000C8016DE571E203C0C80168E671E20E94B6
:100E0000131ECE016F814DE328E00E94DE068D8126
:100E10009E8168850E94381D882321F0C80164E7FF
:100E200071E203C0C8016EE771E20E94131EDF91F8
:100E3000CF911F910F9108950F931F938C01F8018B
:100E400067814DE322E60E94DE06F80110A21F91A1
:100E50000F910895EF92FF921F93CF93DF93EC01D0
:100E6000EC84FD846F814DE328E00E94DE06CE0114
:100E7000688540E227E30E94DE06CE01688541E2F4
:100E800020E00E94DE06CE01688542E220E00E945A
:100E9000DE06CE01688543E220EC0E94DE06CE012C
:100EA000688544E220E00E94DE0612E1CE016F81F7
:100EB000412F20E00E94DE061F5F1831B9F7CE01F6
:100EC0006F8142E12FEF0E94DE06CE016F8143E188
:100ED00020E00E94DE06288530E035952795CE017A
:100EE0006F8144E10E94DE0688EE93E0B7010E9424
:100EF0008F279B0121503040CE016F8145E10E9438
:100F0000DE062A85220F220F220F8985282BCE018B
:100F10006F8146E10E94DE06CE016F8148E128EA3A
:100F20000E94DE06CE016F814EE32B850E94DE0615
:100F3000CE016F814DE328E20E94DE0680E090E062
:100F4000DF91CF911F91FF90EF900895FC0164878E
:100F5000758788EE93E00E948F279B0121503040D7
:100F6000CF01678145E10E94DE060895FC011082F1
:100F700011821282138214821582168217821086C1
:100F8000118612861386148615860895FC01108238
:100F900011821282138214821582168217821086A1
:100FA000118612861386148615860895FC016287C1
:100FB00073870895FC0164870895EF92FF920F9361
:100FC0001F93CF93DF937C018B01C0E0D0E0F7014A
:100FD000EC0FFD1FA081B181109749F0ED91FC91BC
:100FE00011970480F581E02DCD01B8011995229665
:100FF000C830D10561F7DF91CF911F910F91FF901C
:10100000EF9008950F931F93CF93DF938C01C0E06F
:10101000D0E0F801EC0FFD1FA081B181109741F0E5
:10102000ED91FC9111970488F589E02DCD0119957A
:101030002296C830D10569F7DF91CF911F910F91AA
:101040000895DC01FC0120E030E080819181892B52
:1010500071F4F901EE0FFF1FEA0FFB1F608371832C
:1010600018968C9118978F5F18968C9308C02F5FF5
:101070003F4F32962430310541F72FEF3FEFC90142
:1010800008950F931F93CF93DF938C01C0E0D0E0BE
:10109000F801EC0FFD1FA081B181109741F0ED9197
:1010A000FC9111970190F081E02DCD0119952296C8
:1010B000C830D10569F780E090E0DF91CF911F91B2
:1010C0000F9108950F931F93CF93DF938C0180E0CE
:1010D000C0E0D0E0F801EC0FFD1FA081B1811097B6
:1010E00049F0ED91FC9111970680F781E02DCD013B
:1010F000199581E02296C830D10561F7DF91CF9133
:101100001F910F910895FF920F931F93CF93DF9339
:101110008C01FF24F394C0E0D0E0F801EC0FFD1F38
:10112000A081B181109759F0ED91FC911197008445
:10113000F185E02DCD011995882309F4FF2422962D
:10114000C830D10551F78F2DDF91CF911F910F91AD
:10115000FF9008950F931F93CF93DF938C01C0E00E
:10116000D0E0F801EC0FFD1FA081B181109751F084
:10117000ED91FC9111970284F385E02DCD01199535
:10118000882329F02296C830D10559F781E0DF91F4
:10119000CF911F910F9108950F931F93CF93DF93DA
:1011A0008C01C0E0D0E0F801EC0FFD1FA081B181FF
:1011B000109741F0ED91FC9111970484F585E02D95
:1011C000CD0119952296C830D10569F7DF91CF91ED
:1011D0001F910F9108950F931F93CF93DF938C016D
:1011E000C0E0D0E0F801EC0FFD1FA081B1811097A5
:1011F00051F0ED91FC9111970684F785E02DCD011A
:101200001995882329F02296C830D10559F781E035
:10121000DF91CF911F910F910895EF92FF920F935D
:101220001F93CF93DF937C018B01C0E0D0E0F701E7
:10123000EC0FFD1FA081B181109749F0ED91FC9159
:1012400011970688F789E02DCD01B80119952296EE
:10125000C830D10561F7DF91CF911F910F91FF90B9
:10126000EF9008950F931F93CF93DF938C01C0E00D
:10127000D0E0F801EC0FFD1FA081B181109741F083
:10128000ED91FC911197008CF18DE02DCD01199518
:101290002296C830D10569F7DF91CF911F910F9148
:1012A00008950F931F93CF93DF93EC0100E010E0BC
:1012B000FE01E00FF11FA081B181109741F0ED9187
:1012C000FC9111970280F381E02DCD0119950E5FFD
:1012D0001F4F0830110561F719861A861B861C8678
:1012E0001D86CE010E943209DF91CF911F910F918F
:1012F0000895EF92FF920F931F93CF93DF938C018A
:101300000E94CC08C4E1D0E090E2E92E93E0F92EEF
:1013100007C0F7013197F1F70197D9F7209789F0C6
:10132000C8010E94EB088823F9F48091B8269091B7
:10133000B92669ED71E20E94131E219784E690E0C0
:10134000E8CF8091B8269091B9266CEE71E20E94A8
:10135000131E0DC0C0E0D0E0C8010E94AA0821966B
:10136000CA30D105C9F703C0CD2BA1F7EACFDF9171
:10137000CF911F910F91FF90EF9008958F929F92C0
:10138000BF92CF92DF92EF92FF920F931F93DF9362
:10139000CF93CDB7DEB7CC58D040CDBFDEBF6C0108
:1013A0004B012EE0E22EF12CE80EF91EB70100E011
:1013B00010E0F601E00FF11FA081B181109749F014
:1013C000ED91FC9111970288F389E02DCD011995DB
:1013D000BC010E5F1F4F0830110559F7B62EBE181D
:1013E00083E589838EE48A8380E58B8387EB8C8316
:1013F000D6011D968C911D978D838F5F1D968C93C2
:10140000BE828E01095F1F4FC801B7014B2D50E00E
:101410000E945229EB2CFF240E0D1F1D8FEAF801AC
:101420008083FE01EE0DFF1D8AE5808788E090E055
:10143000E80EF91E8E010F5F1F4FC8018E0D9F1D14
:1014400061E072E20E946F29D401ED91FC9184E089
:1014500090E0E80EF91E0480F581E02DC401B8018A
:10146000A7011995C457DF4FCDBFDEBFCF91DF91E4
:101470001F910F91FF90EF90DF90CF90BF909F90C2
:101480008F9008950F931F93CF93DF93EC018B01FF
:1014900089858230A1F1833030F4882359F081307E
:1014A00009F06CC01DC0833009F444C0843009F0D9
:1014B00065C04FC08C85882329F48A859B85892B3C
:1014C00009F45DC08091B8269091B92666E072E279
:1014D0000E94131E81E08987CE010E94CC084FC074
:1014E000CE010E94EB08882309F449C08091B826F8
:1014F0009091B92662E272E20E94131E3DC0CE01B5
:101500000E94AA088823D9F18C85882329F48A852A
:101510009B8501978A879B878091B8269091B926F1
:101520006BE372E20E94131ECE010E94620883E008
:10153000898725C0CE010E948308882301F180910C
:10154000B8269091B9266FE572E20E94131E84E0DE
:10155000EFCF8091B8269091B92667E772E20E949A
:10156000131ECE01B8010E94BE098C85882321F488
:101570008A859B85892B11F082E0DACF198680E07D
:1015800090E0DF91CF911F910F9108950895FC0194
:101590008481811181E0089520E0FC018481833001
:1015A00009F421E0822F089508950895FC018581B2
:1015B00096810E949A170895CF93DF93AC01DB01C7
:1015C000FB0185EA81938AE511968C933196EF01B0
:1015D000DA01519680E10D9009928150E1F785EA98
:1015E000808B8AE5818B9F012E5E3F4FE901DA01F6
:1015F000919680E10D9009928150E1F7205F3F4F75
:10160000C901DF91CF910895FC0170E084E0660F7D
:10161000771F8A95E1F76F5E7F4F6E0F7F1F858181
:10162000968140E10E94051C08950F93DF93CF93AC
:101630000F92CDB7DEB7DC018CE38983FD01E60FA5
:10164000F11D15968D919C9116976781AE014F5FA4
:101650005F4F21E000E10E94201C0F90CF91DF91AD
:101660000F91089502970E94360B0895CF93DF9350
:10167000EC018C81813019F0823041F519C0CE0126
:1016800060E00E94040B82E08C83CE0161E00E9446
:10169000150B2091B8263091B926892B21F4C90168
:1016A0006FE872E211C01C82C90168EA72E20CC0E4
:1016B00083E08C83CE0161E00E94040B8091B82608
:1016C0009091B92662EC72E20E94131EDF91CF91D5
:1016D0000895CF93DF93EC0181E08C83CE0160E02D
:1016E0000E94150B2091B8263091B926892B21F440
:1016F000C9016EED72E204C01C82C9016CEE72E297
:101700000E94131E80E090E0DF91CF9108950F9327
:101710001F938C01FC01858196810E94311BF80189
:101720008581968140E85AE166E070E00E945F1B87
:10173000B8016E5F7F4FF801858196810E945A172C
:10174000F80114821F910F910895EF920F93FC01FD
:10175000CB0160E473E2608371836E5D7F4F6283CF
:101760007383478321870087E2868583968321E000
:101770002387248725872AE030E02687378714824D
:101780003296BF010E945A170F91EF900895EF9281
:101790000F93FC01CB0160E473E2608371836E5DA3
:1017A0007F4F62837383478321870087E286858327
:1017B000968321E02387248725872AE030E0268747
:1017C000378714823296BF010E945A170F91EF900B
:1017D0000895BF92CF92DF92EF92FF920F931F93E3
:1017E000DF93CF930F92CDB7DEB77C014983B22E42
:1017F0006801FC0185819681AE014F5F5F4F21E05A
:101800000B2D0E94831C9C0197FD09C0F701858167
:101810009681B6014B2D0E94051C282F30E0C9018E
:101820000F90CF91DF911F910F91FF90EF90DF907C
:10183000CF90BF900895CF92DF92EF92FF920F93D7
:101840001F93DF93CF93CDB7DEB72E97CDBFDEBF0B
:101850006C01DC01D1961C91D197112341F5ED91DA
:10186000FC910284F385E02D1995882301F1C601CE
:10187000F60167814CE32EE07E010894E11CF11C27
:1018800087010E94E90BC601D60118966C914CE3C2
:101890002EE00E94E90B81E0F60181AB8091B82631
:1018A0009091B9266EEF72E20E94131E11E0812F13
:1018B0002E96CDBFDEBFCF91DF911F910F91FF908C
:1018C000EF90DF90CF900895AF92BF92CF92DF92CA
:1018D000EF92FF920F931F93DF93CF930F920F928C
:1018E000CDB7DEB76C01F60167814AE322E05E0105
:1018F0000894A11CB11C85010E94E90BE980FF241A
:10190000F3E0EF22FF24FE2CEE248A8190E0E82A07
:10191000F92AC601F60160854AE322E00E94E90B3C
:1019200089812A81F0E1EF16F10410F440E00CC047
:1019300040E090E083709070982F882730E0822BF1
:10194000932B409708F041E0842F0F900F90CF9198
:10195000DF911F910F91FF90EF90DF90CF90BF909C
:10196000AF90089540933C2720933D27FC0185814B
:1019700096814CE357E222E00E94231D0895CF9206
:10198000DF92EF92FF920F931F93CF93DF938C011F
:101990007B01EC0152E0C52ED12CC80ED91EF801F6
:1019A000858196816F810E94381D882321F0C701AF
:1019B00060E173E203C0C7016BE173E20E94131E92
:1019C000C8016F814DE328E00E94B20CF8018581C7
:1019D000968169850E94381D882321F0C70167E23E
:1019E00073E203C0C70161E373E20E94131E2196F4
:1019F000CC15DD05A1F6DF91CF911F910F91FF90DE
:101A0000EF90DF90CF9008950F931F938C01F80112
:101A100067814DE322E60E94B20CC801F80160859F
:101A20004DE322E60E94B20CF80111AA1F910F911A
:101A30000895AF92BF92CF92DF92FF920F931F93C0
:101A4000CF93DF938C01FC016685778588EE93E068
:101A50000E948F275B010894A108B108E801E2E029
:101A6000CE2ED12CC00ED11EC8016F814DE328E0CF
:101A70000E94B20CC801698540E227E30E94B20CC3
:101A8000C801698541E220E00E94B20CC801698565
:101A900042E220E00E94B20CC801698543E220ECDA
:101AA0000E94B20CC801698544E220E00E94B20C99
:101AB00072E1F72EC8016F814F2D20E00E94B20C19
:101AC000F394F8E1FF16B1F7C8016F8142E12FEFFF
:101AD0000E94B20CC8016F8143E120E00E94B20C69
:101AE000298530E035952795C8016F8144E10E9432
:101AF000B20CC8016F8145E12A2D0E94B20CF80199
:101B00002485220F220F220F8385282BC8016F8185
:101B100046E10E94B20CC8016F8148E128EA0E94A8
:101B2000B20CC8016F814EE3F80125850E94B20C0A
:101B3000C8016F814DE328E20E94B20C2196CC15BA
:101B4000DD0509F091CF80E090E0DF91CF911F910A
:101B50000F91FF90DF90CF90BF90AF900895EF92DC
:101B6000FF920F931F937C01FC016687778788EEB5
:101B700093E00E948F278B0101501040C7016781BD
:101B800045E1202F0E94B20CC701F701608545E1B5
:101B9000202F0E94B20C1F910F91FF90EF9008959B
:101BA000FC01848D958D0895FC01868D978D089597
:101BB000FC01128E138E10A20895FC01868997896C
:101BC0000895FC0180A10895CF93DF93DC01EA0121
:101BD00090968C919097681778F4E62FF0E0319604
:101BE000EE0FFF1FEA0FFB1F6081718188819981D1
:101BF000422F50E00E947629DF91CF910895CF9334
:101C0000DF93DC01EA0190968C919097681760F45D
:101C1000E62FF0E03196EE0FFF1FEA0FFB1F8081E9
:101C200091810E942F298883DF91CF910895CF93CE
:101C3000DF93DC01EA0190968C919097681768F425
:101C4000E62FF0E03196EE0FFF1FEA0FFB1F8081B9
:101C500091810E942F2988839983DF91CF910895E4
:101C6000EF92FF920F931F93CF93DF93EC01088DB8
:101C7000198DEE8CFF8CC801B7010E948529009751
:101C800031F1C801B7010E944D298E8B9F8B6E8D5B
:101C90007F8D80E090E00E944D297E0100E010E001
:101CA00012C0F701828393830F5F1F4F6E8D7F8D6C
:101CB00080E090E00E944D2922E030E0E20EF31E29
:101CC0000A30110511F0009761F708A303C00E8BCD
:101CD0001F8B18A281E08B8FDF91CF911F910F9105
:101CE000FF90EF9008951F93CF93DF93EC0122C0F4
:101CF000888199810E942015182F8C8D9D8D612FD0
:101D000070E00E945B299C018A8D232B61F088235F
:101D100089F0E88DF98DE80FF11D1082CE010E9447
:101D2000300E81E00DC0E88DF98DE80FF11D1083B4
:101D30008F5F8A8F888199810E940C158823C1F654
:101D4000DF91CF911F910895EF92FF920F931F9310
:101D50008C01F62EE72EFC01868D978D0E94D728E8
:101D6000EF2DFE2DDF010D900020E9F7CD018E1B38
:101D70009F0B0E942A28F801868F978F6F2D7E2D4A
:101D80000E946F291F910F91FF90EF900895EF929D
:101D9000FF920F931F938C01F62EE72EFC01848D8A
:101DA000958D0E94D728EF2DFE2DDF010D9000208C
:101DB000E9F7CD018E1B9F0B0E942A28F801848F22
:101DC000958F6F2D7E2D0E946F291F910F91FF908F
:101DD000EF9008950F931F938C01FC016083718332
:101DE00080E890E00E942A28F801808F918F168A5F
:101DF000178A83E090E00E942A28F801848F958F4B
:101E00006CE873E20E946F2983E090E00E942A2828
:101E1000F801868F978F6FE873E20E946F29F801AF
:101E2000128E138E10A21F910F9108950F931F937E
:101E30008C01FC016083718380E890E00E942A2875
:101E4000F801808F918F168A178A83E090E00E94B4
:101E50002A28F801848F958F6CE873E20E946F291D
:101E600083E090E00E942A28F801868F978F6FE820
:101E700073E20E946F29F801128E138E10A21F9137
:101E80000F9108950F931F93CF93DF938C01FC0163
:101E900080819181009711F00E94ED14F801C081BA
:101EA000D181209731F0CE010E947B16CE010E9495
:101EB000D31DF801808D918D0E94D728F801868D61
:101EC000978D0E94D728F801848D958D0E94D72880
:101ED000DF91CF911F910F9108950F931F93CF938F
:101EE000DF938C01FC0180819181009711F00E94A9
:101EF000ED14F801C081D181209731F0CE010E940C
:101F00007B16CE010E94D31DF801808D918D0E9419
:101F1000D728F801868D978D0E94D728F801848DE7
:101F2000958D0E94D728DF91CF911F910F91089531
:101F3000FC0120E030E08081882311F421E030E0D2
:101F4000C9010895FC0181E08083089508950895F2
:101F5000FC0180819181848395838283938308959A
:101F6000FC0144815581228133814217530711F4CA
:101F700080E008952417350718F4842F821B0895F4
:101F80008681840F821B0895FC0142815381248144
:101F90003581CA01821B930B019741F060E0241B3D
:101FA000350B868190E02817390709F461E0862F08
:101FB0000895FC0140E022813381848195812817B6
:101FC000390709F441E0842F0895DC0112962D9120
:101FD0003C9113971496ED91FC911597C9018E1BB6
:101FE0009F0B019789F0CF01821B930B9C011696E2
:101FF0008C91169790E02817390741F405C0149684
:102000002D933C93159713C08FEF08956193149609
:10201000ED93FC9315972D913C911197E21BF30BD7
:1020200016968C91169790E08E179F0744F380E0E8
:102030000895DC011296ED91FC91139714968D9101
:102040009C911597E817F90711F440E015C04191EC
:102050001296ED93FC9313972D913C911197E21BEF
:10206000F30B16968C91169790E08E179F0724F429
:1020700012962D933C931397842F08950F931F93DB
:102080008C01862F8F5FF801868390E00E942A28BA
:10209000F8018083918384839583828393831F9146
:1020A0000F9108956F927F928F929F92AF92BF92FD
:1020B000CF92DF92EF92FF920F931F93DF93CF9314
:1020C000CDB7DEB7C758D040CDBFDEBF4C018E01C3
:1020D0000F5F1F4FC80164E10E943E1041E0E42EF3
:1020E000F12C38E0C32ED12CCC0EDD1E22E9A22E1D
:1020F00023E2B22EC8016E2D0E94E50FC8010E9496
:10210000B00F2DB73EB7285030402DBF3EBFEDB7C2
:10211000FEB73196ADB7BEB71196CD92DC9212974D
:10212000A282B382E482F582868317820E94C2294A
:102130002DB73EB7285F3F4F2DBF3EBFC401B6014C
:102140000E94131E0894E11CF11C39E1E316F1040E
:1021500089F689819A818D839E838B839C83C801B4
:102160000E94B00F00D000D0EDB7FEB73196ADB7EA
:10217000BEB71196CD92DC92129729EA33E2228300
:102180003383848315820E94C2292DB73EB72A5F0C
:102190003F4F2DBF3EBFC401B6010E94131E10E089
:1021A0007E010894E11CF11CC701612F0E94E50F1C
:1021B0001F5F1A30C9F7C7010E94B00F00D000D0CE
:1021C000EDB7FEB731968E01085F1F4FADB7BEB7B2
:1021D00011960D931C93129728EB33E222833383DD
:1021E000848315820E94C2292DB73EB72A5F3F4FD4
:1021F0002DBF3EBFC401B8010E94131E91E0E92E1D
:10220000F12C5E010894A11CB11CD02E012F84ED8D
:10221000682E83E2782EC5010E941910182FC5017F
:102220000E94B00FADB7BEB71897ADBFBEBFEDB738
:10223000FEB731961196DC92119712960C9362823A
:10224000738214831582868317820E94C2292DB758
:102250003EB7285F3F4F2DBF3EBFC4016D2D702F8D
:102260000E94131E0894E11CF11C3FE0E316F104E8
:1022700091F6C957DF4FCDBFDEBFCF91DF911F91E0
:102280000F91FF90EF90DF90CF90BF90AF909F9015
:102290008F907F906F9008950F931F938C01862FDE
:1022A0008F5FF801868390E00E942A28F8018083DE
:1022B000918384839583828393831F910F910895E3
:1022C0001F920F920FB60F9208B60F92112418BEEC
:1022D0000F9008BE0F900FBE0F901F9018951F9281
:1022E0000F920FB60F9208B60F92112418BE0F90DE
:1022F00008BE0F900FBE0F901F9018951F920F925F
:102300000FB60F9208B60F92112418BE0F9008BE98
:102310000F900FBE0F901F9018951F920F920FB63F
:102320000F9208B60F92112418BE0F9008BE0F909E
:102330000FBE0F901F9018951F920F920FB60F921D
:1023400008B60F92112418BE0F9008BE0F900FBE52
:102350000F901F9018951F920F920FB60F9208B60C
:102360000F92112418BE0F9008BE0F900FBE0F9051
:102370001F9018951F920F920FB60F9208B60F92EA
:10238000112418BE0F9008BE0F900FBE0F901F9023
:1023900018951F920F920FB60F9208B60F92112444
:1023A00018BE0F9008BE0F900FBE0F901F9018958B
:1023B0001F920F920FB60F9208B60F92112418BEFB
:1023C0000F9008BE0F900FBE0F901F9018951F9290
:1023D0000F920FB60F9208B60F92112418BE0F90ED
:1023E00008BE0F900FBE0F901F9018951F920F926E
:1023F0000FB60F9208B60F92112418BE0F9008BEA8
:102400000F900FBE0F901F9018951F920F920FB64E
:102410000F9208B60F92112418BE0F9008BE0F90AD
:102420000FBE0F901F9018951F920F920FB60F922C
:1024300008B60F92112418BE0F9008BE0F900FBE61
:102440000F901F9018951F920F920FB60F9208B61B
:102450000F92112418BE0F9008BE0F900FBE0F9060
:102460001F9018951F920F920FB60F9208B60F92F9
:10247000112418BE0F9008BE0F900FBE0F901F9032
:1024800018951F920F920FB60F9208B60F92112453
:1024900018BE0F9008BE0F900FBE0F901F9018959A
:1024A00028E0803A920729F460933E2770933F27F3
:1024B000089528E0803B920729F4609340277093A9
:1024C0004127089529E0803A920729F46093422732
:1024D00070934327089529E0803B920729F4609385
:1024E00044277093452708952AE0803A920729F4FB
:1024F000609346277093472708952AE0803B920710
:1025000029F4609348277093492708952BE0803A77
:10251000920729F460934A2770934B270895805BB4
:102520009B4021F460934C2770934D2708950F939F
:102530001F93CF93DF93FC01A481B5814C9102805E
:10254000F381E02D8F0100581F4FD801CD91DC9110
:10255000CE01019660E870E00E94A3279C01EE572F
:10256000FF4F80819181E258F0402817390731F000
:10257000EC0FFD1F4083F80120833183DF91CF9161
:102580001F910F9108951F920F920FB60F9208B6E8
:102590000F9209B60F920BB60F92112418BE19BEF6
:1025A0001BBE2F933F934F935F936F937F938F93B4
:1025B0009F93AF93BF93EF93FF9380914C2790919C
:1025C0004D27009711F00E949712FF91EF91BF9154
:1025D000AF919F918F917F916F915F914F913F91BB
:1025E0002F910F900BBE0F9009BE0F9008BE0F9059
:1025F0000FBE0F901F9018951F920F920FB60F925B
:1026000008B60F9209B60F920BB60F92112418BE9E
:1026100019BE1BBE2F933F934F935F936F937F938E
:102620008F939F93AF93BF93EF93FF9380914A272C
:1026300090914B27009711F00E949712FF91EF9114
:10264000BF91AF919F918F917F916F915F914F91CA
:102650003F912F910F900BBE0F9009BE0F9008BEB7
:102660000F900FBE0F901F9018951F920F920FB6EC
:102670000F9208B60F9209B60F920BB60F92112463
:1026800018BE19BE1BBE2F933F934F935F936F935A
:102690007F938F939F93AF93BF93EF93FF9380911B
:1026A000482790914927009711F00E949712FF91B7
:1026B000EF91BF91AF919F918F917F916F915F91BA
:1026C0004F913F912F910F900BBE0F9009BE0F902D
:1026D00008BE0F900FBE0F901F9018951F920F927B
:1026E0000FB60F9208B60F9209B60F920BB60F9263
:1026F000112418BE19BE1BBE2F933F934F935F93B7
:102700006F937F938F939F93AF93BF93EF93FF93B9
:102710008091462790914727009711F00E949712C9
:10272000FF91EF91BF91AF919F918F917F916F91A9
:102730005F914F913F912F910F900BBE0F9009BE6B
:102740000F9008BE0F900FBE0F901F9018951F920C
:102750000F920FB60F9208B60F9209B60F920BB6F2
:102760000F92112418BE19BE1BBE2F933F934F9397
:102770005F936F937F938F939F93AF93BF93EF93E9
:10278000FF938091442790914527009711F00E9474
:102790009712FF91EF91BF91AF919F918F917F9190
:1027A0006F915F914F913F912F910F900BBE0F90C2
:1027B00009BE0F9008BE0F900FBE0F901F90189586
:1027C0001F920F920FB60F9208B60F9209B60F9292
:1027D0000BB60F92112418BE19BE1BBE2F933F9348
:1027E0004F935F936F937F938F939F93AF93BF9319
:1027F000EF93FF938091422790914327009711F028
:102800000E949712FF91EF91BF91AF919F918F918D
:102810007F916F915F914F913F912F910F900BBEE0
:102820000F9009BE0F9008BE0F900FBE0F901F9023
:1028300018951F920F920FB60F9208B60F9209B615
:102840000F920BB60F92112418BE19BE1BBE2F9308
:102850003F934F935F936F937F938F939F93AF9328
:10286000BF93EF93FF93809140279091412700976A
:1028700011F00E949712FF91EF91BF91AF919F913C
:102880008F917F916F915F914F913F912F910F9019
:102890000BBE0F9009BE0F9008BE0F900FBE0F9099
:1028A0001F9018951F920F920FB60F9208B60F92B5
:1028B00009B60F920BB60F92112418BE19BE1BBE9B
:1028C0002F933F934F935F936F937F938F939F9338
:1028D000AF93BF93EF93FF9380913E2790913F2753
:1028E000009711F00E949712FF91EF91BF91AF9165
:1028F0009F918F917F916F915F914F913F912F9118
:102900000F900BBE0F9009BE0F9008BE0F900FBE28
:102910000F901F90189508950895CF92DF92EF922F
:10292000FF920F931F938C016A017B01DC011B96C0
:102930002C931B97FC014487558766877787068011
:10294000F781E02D18968C91189782831696ED9159
:10295000FC91179719968C91199781831496ED9194
:10296000FC91159784818260848360E074E284EF37
:1029700090E0A70196010E94D82721503040D8014D
:102980001496ED91FC91159726831496ED91FC9188
:10299000159737831496ED91FC9115978481886182
:1029A00084831496ED91FC91159783818F7C8061CF
:1029B00083831496ED91FC91159783E0858314969B
:1029C0008D919C911597B8010E9450121F910F9103
:1029D000FF90EF90DF90CF9008950F931F938C019D
:1029E000DC0114968D919C91159760E070E00E9437
:1029F0005012D8011496ED91FC9115978481877E31
:102A000084831496ED91FC91159783818F7C80616E
:102A100083831F910F910895DC011296ED91FC9133
:102A20001397E058FF4F8191919180589F4F2081DB
:102A30003181821B930B60E870E00E94A327089508
:102A4000CF93DF93DC011296ED91FC911397EF0188
:102A5000CE57DF4F48815981E058FF4F80819181E7
:102A6000E058F0408417950719F42FEF3FEF0CC0A2
:102A7000E40FF51F2081CA01019660E870E00E9412
:102A8000A3278883998330E0C901DF91CF9108950E
:102A9000DC011296ED91FC911397EE57FF4F808168
:102AA0009181929382930895FC018089882339F063
:102AB0000480F581E02D818185FFFDCF608308953D
:102AC000FC01608B08957F928F929F92AF92BF928C
:102AD000CF92DF92EF92FF920F931F93DF93CF93EA
:102AE000CDB7DEB7C456D040CDBFDEBF4C015A01D2
:102AF0006B01722EDC011B962C931B97FC01448703
:102B00005587668777870680F781E02D18968C9128
:102B1000189782831696ED91FC91179719968C91D0
:102B200081838091B8269091B926892B31F100D00C
:102B300000D0EDB7FEB731968E010F5F1F4FADB7D6
:102B4000BEB711960D931C9312978AEE93E282837F
:102B50009383822F992787FD9095848395830E9484
:102B6000C229EDB7FEB73696EDBFFEBF8091B826FD
:102B70009091B926B8010E94131E77FC21C060E134
:102B800070E0072C02C0660F771F0A94E2F78827CF
:102B900077FD8095982FA60195010E9470270E94CD
:102BA00050249B01AC0160E074E284EF9BE40E943E
:102BB000442320E030E040E85FE30E94EC212FC096
:102BC000719461E070E0072C02C0660F771F0A94D1
:102BD000E2F7882777FD8095982F0E9450247B018B
:102BE0008C01C601B5010E94502420E030E040E88D
:102BF00051E40E944A229B01AC0160E074E284EF40
:102C00009BE40E94442320E030E040E85FE30E9420
:102C1000EC219B01AC01C801B7010E944A220E942D
:102C200074207B018091B8269091B926892B11F1EF
:102C300000D000D0EDB7FEB731968E010F5F1F4F69
:102C4000ADB7BEB711960D931C9312978AEF93E21E
:102C500082839383E482F5820E94C229EDB7FEB796
:102C60003696EDBFFEBF8091B8269091B926B80187
:102C70000E94131ED4011496ED91FC911597E682E3
:102C80001496ED91FC91159780E09FE0E822F922DF
:102C9000729480EF78227F2877821496ED91FC91D0
:102CA00015978481886184831496ED91FC91159722
:102CB00083818F7C806183831496ED91FC911597BD
:102CC00083E0858314968D919C911597B4010E94A1
:102CD0005012CC59DF4FCDBFDEBFCF91DF911F9196
:102CE0000F91FF90EF90DF90CF90BF90AF909F90AB
:102CF0008F907F9008950F931F938C0188E094E24A
:102D0000F80180839183C8010E94ED14F80182814B
:102D100093810E94D728F801128213821F910F918C
:102D200008950F931F938C0188E094E2F80180834B
:102D30009183C8010E94ED14F801828193810E9461
:102D4000D728F801128213821F910F910895AF9234
:102D5000BF92CF92DF92EF92FF920F931F937C016D
:102D60006B015A01122F88E094E2F701808391836E
:102D700084E890E00E942A28F70182839383C4822A
:102D8000D582A682B78210870187128681E0808B68
:102D90001F910F91FF90EF90DF90CF90BF90AF9079
:102DA0000895AF92BF92CF92DF92EF92FF920F936E
:102DB0001F937C016B015A01122F88E094E2F70106
:102DC0008083918384E890E00E942A28F70182831F
:102DD0009383C482D582A682B78210870187128628
:102DE00081E0808B1F910F91FF90EF90DF90CF904B
:102DF000BF90AF9008951F920F920FB60F9208B632
:102E00000F92112418BE0F9008BE0F900FBE0F90A6
:102E10001F9018951F920F920FB60F9208B60F923F
:102E2000112418BE0F9008BE0F900FBE0F901F9078
:102E300018951F920F920FB60F9208B60F92112499
:102E400018BE0F9008BE0F900FBE0F901F901895E0
:102E50001F920F920FB60F9208B60F92112418BE50
:102E60000F9008BE0F900FBE0F901F90189524E092
:102E70008038920729F460934E2770934F27089566
:102E800024E08039920729F46093502770935127EA
:102E9000089524E0803A920729F4609352277093B2
:102EA00053270895805B944021F4609354277093D6
:102EB00055270895FC01678370870895FC010190F0
:102EC000F081E02D848183700895FC018381882343
:102ED00069F48481882351F48189681738F405885E
:102EE000F689E02DE60FF11D8081089580E00895B8
:102EF000FC0181890895FC018381811181E008959D
:102F0000FC01858196810895FC012581368121157A
:102F1000310521F46583768381E0089580E02617EA
:102F2000370709F481E00895FC0183810895FC01CD
:102F300084810895FC010190F081E02D83E083837A
:102F40000895CF93DF93DC01CD91DC9111978C81B3
:102F500084FF09C083E08B8384E014968C931497DC
:102F600013961C9237C01E969C911E971F968C91AB
:102F70001F97981760F45296ED91FC915397E90FC3
:102F8000F11D80819F5F1E969C938F8323C0519675
:102F90009C91519750968C915097981728F41D96B4
:102FA0008C9181608E8316C083E08B8314961C9273
:102FB000149713961C92139717960D90BC91A02D01
:102FC000109741F0ED91FC9111970190F081E02D67
:102FD000CD011995DF91CF910895DC0151969C9117
:102FE000519757968C915797ED91FC91119798179F
:102FF00080F487815596ED91FC915697E90FF11D6C
:10300000808351968C9151978F5F51968C935197F5
:1030100009C083E0838313961C92139785E014966E
:103020008C93149751969C91519750968C915097F0
:10303000ED91FC911197981718F482E0838308951D
:1030400087E0838314961C92149713961C9213970F
:1030500017960D90BC91A02D109741F0ED91FC9129
:1030600011970280F381E02DCD01199508950895FF
:10307000EF92FF920F931F93DF93CF93CDB7DEB7FD
:10308000C058D040CDBFDEBF7C01DC01ED91FC918A
:10309000218100D000D0EDB7FEB731968E010F5FD1
:1030A0001F4FADB7BEB711960D931C9312978EE0CC
:1030B00094E282839383248315820E94C2298DB770
:1030C0009EB706968DBF9EBF8091B8269091B92677
:1030D000B8010E948F1FD701ED91FC91228100D091
:1030E00000D0EDB7FEB73196ADB7BEB711960D93D0
:1030F0001C93129789E194E282839383248315823F
:103100000E94C2298DB79EB706968DBF9EBF809143
:10311000B8269091B926B8010E948F1FD701ED9172
:10312000FC91238100D000D0EDB7FEB73196ADB74A
:10313000BEB711960D931C93129784E294E282839A
:103140009383248315820E94C2298DB79EB7069669
:103150008DBF9EBF8091B8269091B926B8010E947C
:103160008F1FD701ED91FC91258100D000D0EDB7E4
:10317000FEB73196ADB7BEB711960D931C9312975B
:103180008FE294E282839383248315820E94C22972
:103190008DB79EB706968DBF9EBF8091B826909141
:1031A000B926B8010E948F1FD701ED91FC912481AF
:1031B00000D000D0EDB7FEB73196ADB7BEB71196CF
:1031C0000D931C93129789E394E282839383248363
:1031D00015820E94C2298DB79EB706968DBF9EBFED
:1031E0008091B8269091B926B8010E948F1FD7010F
:1031F000ED91FC91208500D000D0EDB7FEB731965F
:10320000ADB7BEB711960D931C93129785E494E267
:1032100082839383248315820E94C2298DB79EB72F
:1032200006968DBF9EBF8091B8269091B926B801B1
:103230000E948F1FC058DF4FCDBFDEBFCF91DF91FF
:103240001F910F91FF90EF900895FC010190F08184
:10325000E02D84818370813071F0813028F08230DC
:1032600089F0833001F517C08091B8269091B92676
:1032700066E574E20DC08091B8269091B9266BE6A0
:1032800074E206C08091B8269091B9266DE774E289
:103290000E948F1F08958091B8269091B92660E909
:1032A00074E20E948F1F08950F931F938C01DC011D
:1032B000ED91FC918481846084838091B826909103
:1032C000B92662EA74E20E948F1FF801138283E03C
:1032D00084831F910F9108950F931F938C01DC013C
:1032E000ED91FC918481886084838091B8269091CF
:1032F000B92668EB74E20E948F1FF801138282E006
:1033000084831F910F9108950F931F93CF93DF93A1
:10331000EC01E881F9810481102F02FF02C00E94B4
:10332000541913FF03C0CE010E946C1916FF03C08D
:10333000CE010E94A11707FF03C0CE010E94ED1726
:10334000DF91CF911F910F9108951F920F920FB6A9
:103350000F9208B60F9209B60F920BB60F92112476
:1033600018BE19BE1BBE2F933F934F935F936F936D
:103370007F938F939F93AF93BF93EF93FF9380912E
:10338000542790915527009711F00E948419FF91BE
:10339000EF91BF91AF919F918F917F916F915F91CD
:1033A0004F913F912F910F900BBE0F9009BE0F9040
:1033B00008BE0F900FBE0F901F9018951F920F928E
:1033C0000FB60F9208B60F9209B60F920BB60F9276
:1033D000112418BE19BE1BBE2F933F934F935F93CA
:1033E0006F937F938F939F93AF93BF93EF93FF93CD
:1033F0008091522790915327009711F00E948419D1
:10340000FF91EF91BF91AF919F918F917F916F91BC
:103410005F914F913F912F910F900BBE0F9009BE7E
:103420000F9008BE0F900FBE0F901F9018951F921F
:103430000F920FB60F9208B60F9209B60F920BB605
:103440000F92112418BE19BE1BBE2F933F934F93AA
:103450005F936F937F938F939F93AF93BF93EF93FC
:10346000FF938091502790915127009711F00E946F
:103470008419FF91EF91BF91AF919F918F917F91AF
:103480006F915F914F913F912F910F900BBE0F90D5
:1034900009BE0F9008BE0F900FBE0F901F90189599
:1034A0001F920F920FB60F9208B60F9209B60F92A5
:1034B0000BB60F92112418BE19BE1BBE2F933F935B
:1034C0004F935F936F937F938F939F93AF93BF932C
:1034D000EF93FF9380914E2790914F27009711F023
:1034E0000E948419FF91EF91BF91AF919F918F91AD
:1034F0007F916F915F914F913F912F910F900BBEF4
:103500000F9009BE0F9008BE0F900FBE0F901F9036
:103510001895CF92DF92EF92FF920F931F93DF9354
:10352000CF93CDB7DEB7C058D040CDBFDEBF6C0162
:10353000F62E00D000D0EDB7FEB731968E010F5FAA
:103540001F4FADB7BEB711960D931C9312978DEC1C
:1035500094E282839383648315820E94C229EDB72B
:10356000FEB73696EDBFFEBF8091B8269091B92682
:10357000B8010E948F1FD601ED91FC9111978181B6
:10358000877F8183ED91FC91119783E28583ED9193
:10359000FC911197818188608183ED91FC9181E09C
:1035A0008483C6010E942519C6010E943818BEEF07
:1035B000FB22D601ED91FC91F68205E080E2E82E37
:1035C00083E0F82E0DC084E690E0F7013197F1F723
:1035D0000197D9F7C6010E942519C6010E94381823
:1035E000015029F0F60183818823D9F0ECCF809136
:1035F000B8269091B92661EE74E20E948F1FC60131
:103600000E94251980E090E0C058DF4FCDBFDEBF9B
:10361000CF91DF911F910F91FF90EF90DF90CF90AE
:103620000895C6010E942519C6010E943818D601C6
:10363000ED91FC9183E08383C6010E942519C601A8
:103640000E943818DCCFFC018381823049F4138258
:103650008091B8269091B9266BEE74E20E948F1F7C
:103660000895DC01ED91FC911197118212961C9244
:103670008091B8269091B9266EEF74E20E948F1F58
:1036800008950F931F938C010E94311BF8018081D4
:10369000918160E070E00E9437171F910F910895AB
:1036A0000F931F938C010E94311BF801808191813F
:1036B00060E070E00E9437171F910F910895AF925C
:1036C000BF92CF92DF92EF92FF920F931F937C01F4
:1036D0005A016B01DC010D911C91F801108288EBFD
:1036E00081839A01AB01220F331F441F551F60E0F5
:1036F00078E488EE91E00E94B6272550D80115960F
:103700002C9360E876E988E990E0A60195010E9493
:10371000B627F70121873287438754870190F081CC
:10372000E02D8CE0828381E08483D70112968C9314
:10373000129713961C92139714961C928091B82698
:103740009091B92665E175E20E948F1F1F910F913C
:10375000FF90EF90DF90CF90BF90AF900895FC0165
:10376000CB0160837183128213821482128A138ABE
:10377000158A168A148A178A158616861786108A5D
:10378000118A158216821782108611861286138678
:103790001486E756FF4F1082E959F040BF010E949E
:1037A00037178091B8269091B9266EE275E20E9493
:1037B0008F1F0895FC01CB016083718312821382F5
:1037C0001482128A138A158A168A148A178A158611
:1037D00016861786108A118A15821682178210861D
:1037E0001186128613861486E756FF4F1082E95918
:1037F000F040BF010E9437178091B8269091B926FA
:103800006EE275E20E948F1F08951F93FC01262F20
:10381000972F8381882381F48481882369F48189A7
:10382000142F841708F4182F65897689822F412F69
:1038300050E00E94522901C010E0812F1F9108958D
:10384000DF92EF92FF920F931F93CF93DF93EC01E0
:10385000162FE42ED52EF22E8A81882319F42FEF0D
:103860003FEF44C08B81882309F449C02EEF3FEF1E
:103870003DC08A899B890E94D7288F2D90E00196B0
:103880000E942A288A8B9B8BFC8A8A899B896E2DB1
:103890007D2D4F2D50E00E9452291E86FF868F8974
:1038A000801760F48D899E890E94D728802F90E030
:1038B00001960E942A288D8B9E8B0F8B198A088B6C
:1038C00086E08C831D878F85882321F01E7FE88109
:1038D000F98107C0E881F981002311F0116001C06E
:1038E0001E7F168381E08B8320E030E0C901DF91E9
:1038F000CF911F910F91FF90EF90DF9008958C89E9
:10390000821718F6B6CFDF92EF92FF920F931F93B4
:10391000DF93CF93CDB7DEB7C058D040CDBFDEBF69
:103920007C01122FD02E0E94201C9C0197FD6FC09D
:10393000612F70E0665F7F4F6D0D711D882777FDE9
:103940008095982FD70119962D913D914D915C91BD
:103950001C970E9470272AE030E040E050E00E946F
:10396000D827C901DA019C01AD019AE62150304007
:103970004040504009F458C0F7018381882309F47E
:1039800053C0892F8A95F1F7F1CF8091B826909195
:10399000B92666E475E20E948F1F87E0D70114966E
:1039A0008C93149713961C921397ED91FC9183E0DE
:1039B00083832DEF3FEF2BC0F7012481222319F4DD
:1039C00020E030E024C000D000D0EDB7FEB7319643
:1039D0008E010F5F1F4FADB7BEB711960D931C93AD
:1039E000129784E595E282839383248315820E9453
:1039F000C229EDB7FEB73696EDBFFEBF8091B8265F
:103A00009091B926B8010E948F1F2CEF3FEFC9019A
:103A1000C058DF4FCDBFDEBFCF91DF911F910F9117
:103A2000FF90EF90DF900895D70113968C91882333
:103A300019F2ABCF0F93042F40E050E020E00E943A
:103A4000831C0F9108950F9300E00E94831C0F9137
:103A500008950F93042F40E050E020E00E94201CC6
:103A60000F9108950F9300E00E94201C0F9108957C
:103A7000CF92DF92EF92FF920F931F93DF93CF933A
:103A8000CDB7DEB7C058D040CDBFDEBF6C01F62E3B
:103A900000D000D0EDB7FEB731968E010F5F1F4FFB
:103AA000ADB7BEB711960D931C93129785E695E2BC
:103AB00082839383648315820E94C229EDB7FEB787
:103AC0003696EDBFFEBF8091B8269091B926B80119
:103AD0000E948F1FC6010E942519C6016F2D40E06C
:103AE00050E020E00E94321D892B09F043C0C6013E
:103AF0000E942519D60119966D917D918D919C9109
:103B00001C9725E030E040E050E00E94D827C90132
:103B1000DA017C018D019AE60894E108F1080109B7
:103B20001109E114F1040105110541F0F601838149
:103B3000882321F0892F8A95F1F7EECFC6010E94E4
:103B40002519E114F10401051105B1F48091B8269D
:103B50009091B92663E775E20E948F1F87E0D60136
:103B600014968C93149713961C921397ED91FC91D5
:103B700083E0838320E006C020E0F601848188236F
:103B800009F421E0822FC058DF4FCDBFDEBFCF91B7
:103B9000DF911F910F91FF90EF90DF90CF900895EC
:103BA0000E94D72808950E94D72808950E942A28A5
:103BB00008950E942A2808950F931F93CF93DF93AF
:103BC0008C01EB0109C02196D801ED91FC91019087
:103BD000F081E02DC801199568816623A1F7DF9176
:103BE000CF911F910F910895EF92FF920F931F9322
:103BF000CF93DF938C017B01EA010CC0D7016D915B
:103C00007D01D801ED91FC910190F081E02DC8017A
:103C100019952197209791F7DF91CF911F910F91DF
:103C2000FF90EF900895DC01ED91FC910280F3810B
:103C3000E02D199508952F923F924F925F926F92C7
:103C40007F928F929F92AF92BF92CF92DF92EF922C
:103C5000FF920F931F93DF93CF93CDB7DEB7A0975B
:103C6000CDBFDEBF1C016A017B0141155105610515
:103C7000710549F440E350E060E070E020E030E09E
:103C80000E94DF1E54C0882499245401422E5524DA
:103C90006624772401E010E00C0F1D1F080D191D8C
:103CA000C701B601A30192010E94B627F801608303
:103CB0000894811C911CA11CB11CC701B601A30171
:103CC00092010E94B627C901DA016C017D01C1147D
:103CD000D104E104F104F1F681E0E82EF12CEC0EC0
:103CE000FD1EE80CF91C3E010894611C711CD501F5
:103CF000C4010197A109B1096C01C818D90814C001
:103D0000F601EE0DFF1D40814A3010F4405D01C008
:103D1000495C50E060E070E0C10120E030E00E94CA
:103D2000DF1E0894E108F1086E147F0449F7A0969D
:103D3000CDBFDEBFCF91DF911F910F91FF90EF902C
:103D4000DF90CF90BF90AF909F908F907F906F90BB
:103D50005F904F903F902F900895DC012115310521
:103D600041F4ED91FC910190F081E02D642F1995C3
:103D700008950E941B1E0895EF92FF920F931F93C8
:103D80009A017B0100E010E0B801A7010E94AD1E7E
:103D90001F910F91FF90EF900895EF92FF920F9374
:103DA0001F939A01E62EFF2400E010E0B801A7015E
:103DB0000E94AD1E1F910F91FF90EF900895EF921A
:103DC000FF920F931F93CF93DF93EC017A018B0146
:103DD0002115310541F4E881F9810190F081E02D50
:103DE000642F19951BC02A303105B1F477FF10C03C
:103DF0004DE250E060E070E020E030E00E94DF1E25
:103E000010950095F094E094E11CF11C011D111D2A
:103E1000CE01B801A7012AE00E941B1EDF91CF91BD
:103E20001F910F91FF90EF900895EF92FF920F93E3
:103E30001F937B019A010027F7FC0095102FB80112
:103E4000A7010E94DF1E1F910F91FF90EF90089530
:103E5000EF92FF920F931F939A01E62EFF2400E04A
:103E600010E0B801A7010E94DF1E1F910F91FF9083
:103E7000EF9008950F931F938C014DE050E060E0A8
:103E800070E020E030E00E94DF1EC8014AE050E010
:103E900060E070E020E030E00E94DF1E1F910F9193
:103EA00008950F931F938C010E94AD1EC8010E94BC
:103EB0003A1F1F910F910895CF92DF92EF92FF92D8
:103EC0000F931F938C019A016B01EE24FF24B7011D
:103ED000A6010E94AD1EC8010E943A1F1F910F91BA
:103EE000FF90EF90DF90CF900895CF92DF92EF9206
:103EF000FF920F931F938C019A01C62EDD24EE24AE
:103F0000FF24B701A6010E94AD1EC8010E943A1FFE
:103F10001F910F91FF90EF90DF90CF9008950F9336
:103F20001F938C010E94131EC8010E943A1F1F910B
:103F30000F9108950F931F938C010E94DF1EC801FB
:103F40000E943A1F1F910F910895CF92DF92EF9236
:103F5000FF920F931F938C016B019A01EE24D7FC03
:103F6000E094FE2CB701A6010E94DF1EC8010E944A
:103F70003A1F1F910F91FF90EF90DF90CF9008951F
:103F8000CF92DF92EF92FF920F931F938C019A01D1
:103F9000C62EDD24EE24FF24B701A6010E94DF1EF9
:103FA000C8010E943A1F1F910F91FF90EF90DF9080
:103FB000CF9008959F92AF92BF92CF92DF92EF92EF
:103FC000FF920F931F93CF93DF93EC017A018B0144
:103FD000922ECB01BA0120E030E040E050E00E9498
:103FE000202488236CF4CE014DE250E060E070E0C4
:103FF00020E030E00E94DF1E17FB109517F91095A6
:1040000020E030E040E05FE3AA240BC0CA01B90120
:1040100020E030E040E251E40E9444239B01AC01E7
:10402000A394A91498F3C801B7010E941D225B0153
:104030006C010E9474207B018C01CE01B801A701A4
:104040002AE030E00E94AD1E992029F0CE016EE9F1
:1040500075E20E94131EC801B7010E9402259B0150
:10406000AC01C601B5010E94EC2122C020E030E085
:1040700040E251E40E944A227B018C010E94AE245E
:104080005B016C01CC24B7FCC094DC2CCE01B601E2
:10409000A5012AE030E00E94DF1EC601B5010E94A2
:1040A00050249B01AC01C801B7010E94EC219A94F5
:1040B0009920E1F6DF91CF911F910F91FF90EF9042
:1040C000DF90CF90BF90AF909F9008950E94DA1F2D
:1040D00008950F931F938C010E94DA1FC8010E945C
:1040E0003A1F1F910F910895EF92FF920F931F9324
:1040F0007B018C0120E030E040E05FE40E94F0238F
:1041000088238CF0C801B70120E030E040E05FE494
:104110000E94EC210E94AE249B01AC012050304053
:104120004040504806C0C801B7010E94AE249B0120
:10413000AC01B901CA011F910F91FF90EF90089552
:10414000A0E0B0E0E6EAF0E20C94F327DC012B01FA
:10415000FA019C91923008F439C1EB0188818230D8
:1041600008F433C1943069F4843009F02FC11196FA
:104170009C9111978981981709F428C1AAEAB5E2A0
:1041800025C1843009F421C18230A9F4923009F0AC
:104190001DC19A01AD0188E0EA010990AE01E90173
:1041A00009929E018150C1F7E201898111969C918B
:1041B0008923818308C1923009F407C112962D909A
:1041C0003C901397EB018A819B811496AD90BD9032
:1041D000CD90DC901797EC80FD800E811F819101BE
:1041E000281B390BB90137FF04C066277727621BEC
:1041F000730B603271050CF061C0121613066CF57A
:1042000037014801062E04C09694879477946794EA
:104210000A94D2F721E030E040E050E004C0220FE1
:10422000331F441F551F6A95D2F72150304040403C
:1042300050402E213F2140235123211531054105B6
:10424000510521F021E030E040E050E079018A01A1
:10425000E628F728082919293CC0232BD1F1260E7E
:10426000371E35014601062E04C096948794779434
:1042700067940A94D2F721E030E040E050E004C0B7
:10428000220F331F441F551F6A95D2F7215030402B
:10429000404050402A213B214C215D212115310510
:1042A0004105510521F021E030E040E050E05901A6
:1042B0006A01A628B728C828D9280BC082159305FB
:1042C0002CF01C01AA24BB24650103C0EE24FF24AA
:1042D000870111969C91D20111968C91981709F43F
:1042E00045C0992339F0A80197012A193B094C09C7
:1042F0005D0906C0A60195012E193F09400B510B1F
:1043000057FD08C01182228233822483358346837D
:1043100057831DC081E081832282338288279927B9
:10432000DC01821B930BA40BB50B84839583A683BE
:10433000B7830DC0220F331F441F551F24833583BD
:10434000468357838281938101978283938324815B
:10435000358146815781DA01C9010197A109B10967
:104360008F5F9F4FAF4FBF4328F30BC091832282D3
:104370003382EA0CFB1C0C1D1D1DE482F5820683B2
:10438000178383E08083248135814681578157FFDD
:104390001AC0C901AA2797FDA095BA2F8170907005
:1043A000A070B0705695479537952795822B932B23
:1043B000A42BB52B84839583A683B78382819381B5
:1043C000019682839383DF0101C0D201CD01CDB775
:1043D000DEB7E2E10C940F28A0E2B0E0E2EFF1E2F8
:1043E0000C94FF2769837A838B839C832D833E8380
:1043F0004F835887E9E0EE2EF12CEC0EFD1ECE0126
:104400000196B7010E949F268E010F5E1F4FCE01BD
:104410000596B8010E949F268A8991E089278A8B98
:10442000C701B801AE01475E5F4F0E94A0200E9405
:10443000CA25A096E6E00C941B28A0E2B0E0E3E2D7
:10444000F2E20C94FF2769837A838B839C832D830C
:104450003E834F835887F9E0EF2EF12CEC0EFD1EC2
:10446000CE010196B7010E949F268E010F5E1F4F5D
:10447000CE010596B8010E949F26C701B801AE0182
:10448000475E5F4F0E94A0200E94CA25A096E6E0EA
:104490000C941B28A0E2B0E0E0E5F2E20C94F327D4
:1044A00069837A838B839C832D833E834F835887D4
:1044B000CE010196BE01675F7F4F0E949F26CE010D
:1044C0000596BE016F5E7F4F0E949F2699859230B0
:1044D00088F089898230C8F0943019F4823051F420
:1044E00004C0843029F4923081F48AEA95E2C6C08F
:1044F000923049F420E09A858A89981321E02A872E
:10450000CE010996BBC0823049F420E09A858A89A1
:10451000981321E02A8BCE014196B0C02D843E84B1
:104520004F8458886D887E888F88988CEE24FF246D
:104530008701AA24BB24650140E050E060E070E000
:10454000E0E0F0E0C10181709070892BE9F0E60CA9
:10455000F71C081D191D9A01AB012A0D3B1D4C1DAE
:104560005D1D80E090E0A0E0B0E0E614F7040805EF
:10457000190520F481E090E0A0E0B0E0BA01A901C3
:10458000480F591F6A1F7B1FAA0CBB1CCC1CDD1CCB
:1045900097FE08C081E090E0A0E0B0E0A82AB92A28
:1045A000CA2ADB2A3196E032F10549F0660C771C05
:1045B000881C991C5694479437942794C3CFFA8546
:1045C000EA892B893C898B859C85280F391F2E5FB2
:1045D0003F4F17C0CA0181709070892B61F016950A
:1045E0000795F794E79480E090E0A0E0B0E8E82A2F
:1045F000F92A0A2B1B2B76956795579547952F5FC0
:104600003F4F77FDE7CF0CC0440F551F661F771F44
:1046100017FD4160EE0CFF1C001F111F21503040A0
:10462000403090E0590790E0690790E4790760F323
:104630002B8F3C8FDB01CA018F779070A070B07018
:1046400080349105A105B10561F447FD0AC0E1146C
:10465000F1040105110529F0405C5F4F6F4F7F4F5A
:1046600040781A8EFE1711F081E08A8F4D8F5E8F91
:104670006F8F78A383E0898FCE0149960E94CA2567
:10468000A096E2E10C940F28A8E1B0E0EAE4F3E29E
:104690000C94FB2769837A838B839C832D833E83D1
:1046A0004F835887B9E0EB2EF12CEC0EFD1ECE01A6
:1046B0000196B7010E949F268E010F5E1F4FCE010B
:1046C0000596B8010E949F262985223008F47EC0F5
:1046D0003989323010F4B8017CC08A859A898927DB
:1046E0008A87243011F0223031F4231709F06EC08C
:1046F0006AEA75E26EC0343039F41D861E861F8664
:10470000188A1B861C8604C0323021F484E0898715
:10471000B7015FC02B853C858B899C89281B390B91
:104720002B873C87ED84FE840F851889AD88BE8871
:10473000CF88D88CEA14FB040C051D0540F4EE0C60
:10474000FF1C001F111F215030402B873C8720E0A9
:1047500030E040E050E080E090E0A0E0B0E460E0D5
:1047600070E0EA14FB040C051D0540F0282B392BE2
:104770004A2B5B2BEA18FB080C091D09B695A79577
:1047800097958795EE0CFF1C001F111F6F5F7F4FE1
:104790006F31710531F7DA01C9018F779070A07020
:1047A000B07080349105A105B10561F427FD0AC000
:1047B000E114F1040105110529F0205C3F4F4F4F32
:1047C0005F4F20782D873E874F87588BBE01675FEC
:1047D0007F4FCB010E94CA256896EAE00C94172807
:1047E000A8E1B0E0E6EFF3E20C94FF2769837A8357
:1047F0008B839C832D833E834F83588789E0E82EEB
:10480000F12CEC0EFD1ECE010196B7010E949F26F1
:104810008E010F5E1F4FCE010596B8010E949F26A4
:104820008985823040F08989823028F0C701B8013B
:104830000E94172701C08FEF6896E6E00C941B28B2
:10484000A8E1B0E0E6E2F4E20C94FF2769837A8302
:104850008B839C832D833E834F83588789E0E82E8A
:10486000F12CEC0EFD1ECE010196B7010E949F2691
:104870008E010F5E1F4FCE010596B8010E949F2644
:104880008985823040F08989823028F0C701B801DB
:104890000E94172701C081E06896E6E00C941B286F
:1048A000A8E0B0E0E6E5F4E20C94FC279B01AC0143
:1048B00083E08983DA01C9018827B7FD83959927A9
:1048C000AA27BB27B82E211531054105510519F43A
:1048D00082E089833AC08823A9F0203080E038073D
:1048E00080E0480780E8580729F460E070E080E045
:1048F0009FEC30C0EE24FF248701E21AF30A040B78
:10490000150B02C079018A018EE1C82ED12CCB8211
:10491000DC82ED82FE820F831887C801B7010E94F6
:104920007B2501971816190684F4082E04C0EE0C96
:10493000FF1C001F111F0A94D2F7ED82FE820F8325
:104940001887C81AD90ACB82DC82BA82CE010196B6
:104950000E94CA252896E9E00C941828ACE0B0E043
:10496000E4EBF4E20C94032869837A838B839C83C1
:10497000CE010196BE016B5F7F4F0E949F268D8105
:10498000823061F1823050F1843021F48E818823AD
:1049900051F12EC02F81388537FD20C06E812F3117
:1049A00031051CF06623F9F023C08EE190E0821BF4
:1049B000930B29853A854B855C8504C056954795B0
:1049C000379527958A95D2F76623B1F05095409593
:1049D000309521953F4F4F4F5F4F0EC020E030E0A4
:1049E00040E050E009C02FEF3FEF4FEF5FE704C01A
:1049F00020E030E040E050E8B901CA012C96E2E046
:104A00000C941F28A8E0B0E0E8E0F5E20C94FB2746
:104A10007B018C01611571058105910519F482E016
:104A2000898360C083E089838EE1C82ED12CCB823C
:104A3000DC82ED82FE820F831887C801B7010E94D5
:104A40007B25FC013197F7FF3BC0222733272E1B24
:104A50003F0B57016801022E04C0D694C794B79447
:104A6000A7940A94D2F740E050E060E070E081E063
:104A700090E0A0E0B0E004C0880F991FAA1FBB1F00
:104A80002A95D2F70197A109B1098E219F21A02370
:104A9000B1230097A105B10521F041E050E060E0AD
:104AA00070E04A295B296C297D294D835E836F83E1
:104AB00078878EE190E08E1B9F0B8B839C8312C0C6
:104AC000309781F00E2E04C0EE0CFF1C001F111F4A
:104AD0000A94D2F7ED82FE820F831887CE1ADF0A7E
:104AE000CB82DC821A82CE0101960E94CA252896CA
:104AF000EAE00C941728EF92FF920F931F937B012B
:104B00008C0180E0E81680E0F80681E0080780E08C
:104B1000180788F48FEFE816F1040105110531F04C
:104B200028F088E090E0A0E0B0E017C080E090E0DE
:104B3000A0E0B0E012C080E0E81680E0F80680E077
:104B4000080781E0180728F088E190E0A0E0B0E0D5
:104B500004C080E190E0A0E0B0E020E230E040E07E
:104B600050E0281B390B4A0B5B0B04C016950795C8
:104B7000F794E7948A95D2F7F701EE54FA4D8081C5
:104B8000281B310941095109C9011F910F91FF905B
:104B9000EF900895DF92EF92FF920F931F93FC0125
:104BA000E480F58006811781D1808081823048F4CD
:104BB00080E090E0A0E1B0E0E82AF92A0A2B1B2B64
:104BC000A5C0843009F49FC0823021F4EE24FF2474
:104BD000870105C0E114F1040105110519F4E0E0B5
:104BE000F0E096C0628173819FEF623879070CF024
:104BF0005BC022E83FEF261B370B2A3131052CF032
:104C000020E030E040E050E02AC0B801A701022EC9
:104C100004C076956795579547950A94D2F781E039
:104C200090E0A0E0B0E004C0880F991FAA1FBB1F4E
:104C30002A95D2F70197A109B1098E219F21A023BE
:104C4000B1230097A105B10521F081E090E0A0E03B
:104C5000B0E09A01AB01282B392B4A2B5B2BDA01F0
:104C6000C9018F779070A070B07080349105A10554
:104C7000B10539F427FF09C0205C3F4F4F4F5F4F0C
:104C800004C0215C3F4F4F4F5F4FE0E0F0E0203029
:104C9000A0E03A07A0E04A07A0E45A0710F0E1E0DC
:104CA000F0E079018A0127C06038710564F5FB01E5
:104CB000E158FF4FD801C7018F779070A070B07096
:104CC00080349105A105B10539F4E7FE0DC080E4FB
:104CD00090E0A0E0B0E004C08FE390E0A0E0B0E09E
:104CE000E80EF91E0A1F1B1F17FF05C01695079532
:104CF000F794E794319687E016950795F794E79433
:104D00008A95D1F705C0EE24FF248701EFEFF0E08C
:104D10006E2F679566276795902F9F77D794DD2430
:104D2000D7948E2F8695492F462B582F5D29B70192
:104D3000CA011F910F91FF90EF90DF900895FC0141
:104D4000DB01408151812281622F6F7770E0221F49
:104D50002227221F9381892F880F822B282F30E052
:104D6000991F9927991F11969C9311972115310529
:104D7000A9F5411551056105710511F482E037C0AF
:104D800082E89FEF12968D939C9313979A01AB0143
:104D900067E0220F331F441F551F6A95D1F783E048
:104DA0008C930DC0220F331F441F551F12968D91F7
:104DB0009C911397019712968D939C931397203093
:104DC00080E0380780E0480780E4580758F31496DD
:104DD0002D933D934D935C93179708952F3F310585
:104DE00079F4411551056105710519F484E08C933E
:104DF000089564FF03C081E08C9312C01C9210C020
:104E00002F57304012962D933C93139783E08C9349
:104E100087E0440F551F661F771F8A95D1F770648E
:104E200014964D935D936D937C93179708951F93FC
:104E3000DC01FB019C91923008F447C080818230F4
:104E400008F443C0943051F411961C91843099F5C4
:104E50008181682F70E0611B71093FC0843021F0AF
:104E6000923031F48230B9F18181882389F12DC0EB
:104E700011961C9111978230F1F081811817D9F4A5
:104E800012962D913C9113978281938182179307FB
:104E900094F028173907BCF014968D919D910D90D0
:104EA000BC91A02D2481358146815781281739076F
:104EB0004A075B0718F4112341F00AC082179307D1
:104EC000A407B50740F4112319F061E070E005C0B4
:104ED0006FEF7FEF02C060E070E0CB011F9108959B
:104EE000629FD001739FF001829FE00DF11D649FCE
:104EF000E00DF11D929FF00D839FF00D749FF00D5A
:104F0000659FF00D9927729FB00DE11DF91F639FFA
:104F1000B00DE11DF91FBD01CF0111240895AA1B99
:104F2000BB1B51E107C0AA1FBB1FA617B70710F094
:104F3000A61BB70B881F991F5A95A9F780959095C6
:104F4000BC01CD01089597FB092E07260AD077FDF5
:104F500004D0E5DF06D000201AF4709561957F4FEC
:104F60000895F6F7909581959F4F0895A1E21A2E26
:104F7000AA1BBB1BFD010DC0AA1FBB1FEE1FFF1FFD
:104F8000A217B307E407F50720F0A21BB30BE40B4D
:104F9000F50B661F771F881F991F1A9469F7609594
:104FA0007095809590959B01AC01BD01CF0108954E
:104FB00097FB092E05260ED057FD04D0D7DF0AD067
:104FC000001C38F450954095309521953F4F4F4F38
:104FD0005F4F0895F6F790958095709561957F4F96
:104FE0008F4F9F4F08952F923F924F925F926F92F3
:104FF0007F928F929F92AF92BF92CF92DF92EF9269
:10500000FF920F931F93CF93DF93CDB7DEB7CA1BE9
:10501000DB0B0FB6F894DEBF0FBECDBF19942A8804
:10502000398848885F846E847D848C849B84AA84BC
:10503000B984C884DF80EE80FD800C811B81AA8149
:10504000B981CE0FD11D0FB6F894DEBF0FBECDBF14
:10505000ED010895CF93DF93BC018230910510F4E8
:1050600062E070E0A0915A27B0915B27ED01E0E08B
:10507000F0E040E050E021C08881998186179707D1
:1050800069F48A819B81309719F08283938304C0ED
:1050900080935A2790935B27FE0134C068177907E5
:1050A00038F44115510519F08417950708F4AC013F
:1050B000FE018A819B819C01E9012097E9F6411557
:1050C0005105A9F1CA01861B970B049708F4BA0190
:1050D000E0E0F0E02AC08D919C911197841795072C
:1050E000F9F46417750781F412968D919C911397CA
:1050F000309719F08283938304C080935A2790934A
:105100005B27FD0132964FC0CA01861B970BFD013C
:10511000E80FF91F6193719302978D939C9343C09D
:10512000FD01828193819C01D9011097A1F68091A4
:10513000582790915927892B41F48091B42690915A
:10514000B52680935827909359274091B6265091C1
:10515000B7264115510541F44DB75EB78091B2268F
:105160009091B326481B590B20915827309159270D
:1051700024173507B0F4CA01821B930B86179707D3
:1051800080F0AB014E5F5F4F8417950750F0420FE0
:10519000531F4093582750935927F90161937193F6
:1051A00002C0E0E0F0E0CF01DF91CF910895CF930E
:1051B000DF93009709F450C0EC0122971A821B82FA
:1051C000A0915A27B0915B27109709F140E050E079
:1051D000AC17BD0708F1AA83BB83FE012191319171
:1051E000E20FF31FAE17BF0779F48D919C911197D1
:1051F000280F391F2E5F3F4F2883398312968D91D8
:105200009C9113978A839B834115510571F4C09338
:105210005A27D0935B2720C012968D919C911397AB
:10522000AD01009711F0DC01D3CFFA01C283D38323
:1052300021913191E20FF31FCE17DF0769F48881C6
:105240009981280F391F2E5F3F4FFA012083318348
:105250008A819B8182839383DF91CF910895FC01A2
:1052600088279927E89421912032E9F3293010F01A
:105270002E30C8F32B3241F02D3239F4689404C03B
:105280000E94BA29820F911D219120532A30C0F328
:105290001EF4909581959F4F089546E557E20E9430
:1052A00093290895FB01DC0102C001900D92415049
:1052B0005040D8F70895FC018191861721F088238A
:1052C000D9F7992708953197CF010895FB01DC01A3
:1052D0008D91019080190110D9F3990B0895FB016C
:1052E000DC0101900D920020E1F70895FB01DC0143
:1052F0004150504048F001900D920020C9F701C084
:105300001D9241505040E0F70895DC0199278D919E
:10531000882341F0FB01019008160110E1F7B9F76D
:105320001197CD010895FA01A191B081009719F468
:105330001097E1F0CD01DC01CD010D90002011F4BA
:10534000C00113C0FB012191222319F02015D9F7C8
:10535000F3CFFB012191201519F41E92119606C07E
:105360002223C1F70D900020A1F7D001FA01A193EB
:10537000B08308957AE0979F902D879F802D910D9F
:10538000112408950F931F93DF93CF93CDB7DEB70A
:105390002E97CDBFDEBF0E891F8986E08C830983DF
:1053A0001A838FEF9FE78D839E839E01265E3F4F7A
:1053B000CE010196688D798DA9010E94ED292F817A
:1053C0003885020F131FF80110822E96CDBFDEBF65
:1053D000CF91DF911F910F9108952F923F924F929D
:1053E0005F926F927F928F929F92AF92BF92CF9275
:1053F000DF92EF92FF920F931F93DF93CF93CDB77E
:10540000DEB72B97CDBFDEBF3C012B015A01FC015B
:1054100016821782838181FD03C06FEF7FEFC6C1C3
:105420009AE0892E1E010894211C311CF30123816E
:10543000F20123FD859123FF81912F01882309F437
:10544000B2C1853239F423FD859123FF81912F016B
:10545000853229F490E0B3010E94032CE7CF982F06
:10546000FF24EE249924FFE1FF15D0F09B3269F070
:105470009C3228F4903259F0933291F40EC09D3250
:1054800049F0903369F441E024C052E0F52A84E009
:10549000F82A28C098E0F92A25C0E0E1FE2A22C0B7
:1054A000F7FC29C0892F80538A3070F4F6FE05C0BE
:1054B000989C902C1124980E15C0E89CE02C112487
:1054C000E80EF0E2FF2A0EC09E3229F4F6FC6BC112
:1054D00040E4F42A07C09C3619F450E8F52A02C0CB
:1054E000983649F4F20123FD959123FF91912F0104
:1054F000992309F0B8CF892F8554833018F0805252
:10550000833038F444E050E0A40EB51E5FE35983C5
:105510000FC0933631F0933779F0933509F056C0C8
:1055200020C0F5018081898342E050E0A40EB51EC1
:10553000610101E010E012C0F501C080D180F6FCED
:1055400003C06FEF7FEF02C0692D70E042E050E0D2
:10555000A40EB51EC6010E94F82B8C015FE7F52250
:1055600014C0F501C080D180F6FC03C06FEF7FEF5F
:1055700002C0692D70E042E050E0A40EB51EC601E5
:105580000E94ED2B8C0150E8F52AF3FE07C01AC0EB
:1055900080E290E0B3010E94032CEA948E2D90E00B
:1055A00008171907A8F30EC0F601F7FC8591F7FE5E
:1055B00081916F0190E0B3010E94032CE110EA9405
:1055C000015010400115110579F7EAC0943611F029
:1055D000993669F5F7FE08C0F501208131814281D5
:1055E000538184E090E00AC0F501808191819C01A3
:1055F000442737FD4095542F82E090E0A80EB91E55
:105600009FE6F92257FF09C05095409530952195A6
:105610003F4F4F4F5F4FE0E8FE2ACA01B901A10199
:105620002AE030E00E942F2CD82ED21840C09537A7
:1056300029F41F2D1F7E2AE030E01DC01F2D197F89
:105640009F3661F0903720F4983509F0ACC00FC058
:10565000903739F0983709F0A6C004C028E030E050
:105660000AC0106114FD146020E130E004C014FD94
:10567000166020E132E017FF08C0F50160817181FA
:105680008281938144E050E008C0F50180819181DE
:10569000BC0180E090E042E050E0A40EB51EA10104
:1056A0000E942F2CD82ED2188FE7F82EF122F6FE6A
:1056B0000BC05EEFF522D91438F4F4FE07C0F2FCFB
:1056C00005C08FEEF82202C01D2D01C0192DF4FE79
:1056D0000DC0FE01ED0DF11D8081803319F499EEAE
:1056E000F92208C01F5FF2FE05C003C08F2D867827
:1056F00009F01F5F0F2DF3FC14C0F0FE0FC01E1544
:1057000010F09D2C0BC09D2C9E0C911A1E2D06C0D6
:1057100080E290E0B3010E94032C1F5F1E15C0F3CE
:1057200004C01E1510F4E11A01C0EE2404FF0FC0DE
:1057300080E390E0B3010E94032C02FF1DC001FD35
:1057400003C088E790E00EC088E590E00BC0802F92
:10575000867891F001FF02C08BE201C080E2F7FC85
:105760008DE290E0B3010E94032C06C080E390E03C
:10577000B3010E94032C9A94D914C0F3DA94F10176
:10578000ED0DF11D808190E0B3010E94032CDD201E
:10579000A9F706C080E290E0B3010E94032CEA94CE
:1057A000EE20C1F743CEF30166817781CB012B96C2
:1057B000CDBFDEBFCF91DF911F910F91FF90EF9092
:1057C000DF90CF90BF90AF909F908F907F906F9021
:1057D0005F904F903F902F900895FC01059061508D
:1057E00070400110D8F7809590958E0F9F1F0895F7
:1057F000FC016150704001900110D8F780959095A0
:105800008E0F9F1F08950F931F93CF93DF938C01EB
:10581000EB018B8181FF1BC082FF0DC02E813F8178
:105820008C819D812817390764F4E881F9810193FF
:10583000E883F98306C0E885F985802F1995892BBF
:1058400031F48E819F8101968E839F8302C00FEF7A
:105850001FEFC801DF91CF911F910F910895FA01B9
:10586000AA27283051F1203181F1E8946F936E7F9F
:105870006E5F7F4F8F4F9F4FAF4FB1E03ED0B4E090
:105880003CD0670F781F891F9A1FA11D680F791FD1
:105890008A1F911DA11D6A0F711D811D911DA11DE2
:1058A00020D009F468943F912AE0269F11243019F2
:1058B000305D3193DEF6CF010895462F4770405D8D
:1058C0004193B3E00FD0C9F7F6CF462F4F70405D3C
:1058D0004A3318F0495D31FD4052419302D0A9F797
:1058E000EACFB4E0A6959795879577956795BA9591
:1058F000C9F700976105710508959B01AC010A2E57
:1059000006945795479537952795BA95C9F7620F2D
:0E591000731F841F951FA01D0895F894FFCFEC
:10591E005374617274696E67206D61696E206C6F6D
:10592E006F702E0A0057656C636F6D6520746F2063
:10593E00746865204779726F20476C6F76652E0A02
:10594E0000636865636B6964004661696C3A696EF1
:10595E00636F727265637420706172616D20636F24
:10596E00756E740A004F6B3A41636B2E0A004F6BD3
:10597E003A4E41636B2E0A00636865636B6964730C
:10598E00006932637772004661696C004F6B006983
:10599E0032637264004F6B3A0030782578200073C2
:1059AE00747265616D004F6B0A00726573657400E9
:1059BE00726174650073657474696D6500676574F2
:1059CE0074696D65004F6B3A25640A0074657374D3
:1059DE00696D75004F6B3A0A00636F6E6669676991
:1059EE006D75006465627567006661737400693277
:1059FE006374657374004661696C3A546869732008
:105A0E00697320616E20496E76616C696420436D06
:105A1E00643A25730A00494D55205374617465200C
:105A2E003D3E207352656164446F6E650A00537487
:105A3E0061727452656164204F6B0A005374617217
:105A4E007452656164204661696C65640A0046693A
:105A5E00666F20496E697469616C697A65640A00C3
:105A6E004669666F436E743A2025780A004779724C
:105A7E006F3A41636B2E0A004779726F3A4E41635B
:105A8E006B2E0A004163633A41636B2E0A00416339
:105A9E00633A4E41636B2E0A00000000002A07CCC9
:105AAE0005A6079905500590061C0754064A056081
:105ABE00054F05EB065A0559058305FEFF000058F4
:105ACE00057F0500000000A70FA70FA70FA70FA7C0
